{
    "_format": "hh-sol-artifact-1",
    "contractName": "AgriShield",
    "sourceName": "contracts/AgriShield.sol",
    "abi": [
        {
            "inputs": [
                {
                    "internalType": "address",
                    "name": "_dataFeedStorePrecipitation",
                    "type": "address"
                },
                {
                    "internalType": "address",
                    "name": "_dataFeedStoreSnowfall",
                    "type": "address"
                }
            ],
            "stateMutability": "nonpayable",
            "type": "constructor"
        },
        {
            "inputs": [
                {
                    "internalType": "uint256",
                    "name": "tokenId",
                    "type": "uint256"
                }
            ],
            "name": "claim",
            "outputs": [],
            "stateMutability": "nonpayable",
            "type": "function"
        },
        {
            "inputs": [],
            "name": "getNftAddress",
            "outputs": [
                {
                    "internalType": "address",
                    "name": "",
                    "type": "address"
                }
            ],
            "stateMutability": "view",
            "type": "function"
        },
        {
            "inputs": [
                {
                    "internalType": "uint256",
                    "name": "startDate",
                    "type": "uint256"
                },
                {
                    "internalType": "uint256",
                    "name": "endDate",
                    "type": "uint256"
                }
            ],
            "name": "getRequiredPayment",
            "outputs": [
                {
                    "internalType": "uint256",
                    "name": "",
                    "type": "uint256"
                }
            ],
            "stateMutability": "pure",
            "type": "function"
        },
        {
            "inputs": [
                {
                    "internalType": "uint256",
                    "name": "startDate",
                    "type": "uint256"
                },
                {
                    "internalType": "uint256",
                    "name": "endDate",
                    "type": "uint256"
                },
                {
                    "internalType": "enum InsuranceEnums.InsuranceType",
                    "name": "insuranceType",
                    "type": "uint8"
                }
            ],
            "name": "mint",
            "outputs": [],
            "stateMutability": "payable",
            "type": "function"
        },
        {
            "inputs": [],
            "name": "nft",
            "outputs": [
                {
                    "internalType": "contract AgriShieldNFT",
                    "name": "",
                    "type": "address"
                }
            ],
            "stateMutability": "view",
            "type": "function"
        },
        {
            "inputs": [],
            "name": "receive",
            "outputs": [],
            "stateMutability": "payable",
            "type": "function"
        }
    ],
    "bytecode": "0x608060405234801561001057600080fd5b50604051614ad5380380614ad583398181016040528101906100329190610193565b816000806101000a81548173ffffffffffffffffffffffffffffffffffffffff021916908373ffffffffffffffffffffffffffffffffffffffff16021790555080600160006101000a81548173ffffffffffffffffffffffffffffffffffffffff021916908373ffffffffffffffffffffffffffffffffffffffff1602179055506040516100bf90610123565b604051809103906000f0801580156100db573d6000803e3d6000fd5b50600260006101000a81548173ffffffffffffffffffffffffffffffffffffffff021916908373ffffffffffffffffffffffffffffffffffffffff16021790555050506101d3565b612bde80611ef783390190565b600080fd5b600073ffffffffffffffffffffffffffffffffffffffff82169050919050565b600061016082610135565b9050919050565b61017081610155565b811461017b57600080fd5b50565b60008151905061018d81610167565b92915050565b600080604083850312156101aa576101a9610130565b5b60006101b88582860161017e565b92505060206101c98582860161017e565b9150509250929050565b611d15806101e26000396000f3fe6080604052600436106100555760003560e01c806305b6cb4f1461005a578063379607f514610076578063458a1f991461009f57806347ccca02146100dc578063a3e76c0f14610107578063be9a71bd14610111575b600080fd5b610074600480360381019061006f9190610f7e565b61013c565b005b34801561008257600080fd5b5061009d60048036038101906100989190610fd1565b610305565b005b3480156100ab57600080fd5b506100c660048036038101906100c19190610ffe565b61085c565b6040516100d3919061104d565b60405180910390f35b3480156100e857600080fd5b506100f16108da565b6040516100fe91906110e7565b60405180910390f35b61010f610900565b005b34801561011d57600080fd5b50610126610940565b6040516101339190611123565b60405180910390f35b600060038111156101505761014f61113e565b5b8160038111156101635761016261113e565b5b036101a3576040517f08c379a000000000000000000000000000000000000000000000000000000000815260040161019a906111ca565b60405180910390fd5b8282116101e5576040517f08c379a00000000000000000000000000000000000000000000000000000000081526004016101dc9061125c565b60405180910390fd5b60006101f1848461085c565b905080341015610236576040517f08c379a000000000000000000000000000000000000000000000000000000000815260040161022d906112ee565b60405180910390fd5b600260009054906101000a900473ffffffffffffffffffffffffffffffffffffffff1673ffffffffffffffffffffffffffffffffffffffff1663104f3b72336040518060a001604052808660038111156102935761029261113e565b5b81526020016000815260200160008152602001888152602001878152506040518363ffffffff1660e01b81526004016102cd9291906113cd565b600060405180830381600087803b1580156102e757600080fd5b505af11580156102fb573d6000803e3d6000fd5b5050505050505050565b3373ffffffffffffffffffffffffffffffffffffffff16600260009054906101000a900473ffffffffffffffffffffffffffffffffffffffff1673ffffffffffffffffffffffffffffffffffffffff16636352211e836040518263ffffffff1660e01b8152600401610377919061104d565b602060405180830381865afa158015610394573d6000803e3d6000fd5b505050506040513d601f19601f820116820180604052508101906103b89190611422565b73ffffffffffffffffffffffffffffffffffffffff161461040e576040517f08c379a00000000000000000000000000000000000000000000000000000000081526004016104059061149b565b60405180910390fd5b6000600260009054906101000a900473ffffffffffffffffffffffffffffffffffffffff1673ffffffffffffffffffffffffffffffffffffffff166302f2fc5c836040518263ffffffff1660e01b815260040161046b919061104d565b60a060405180830381865afa158015610488573d6000803e3d6000fd5b505050506040513d601f19601f820116820180604052508101906104ac9190611602565b9050600060038111156104c2576104c161113e565b5b816000015160038111156104d9576104d861113e565b5b03610519576040517f08c379a0000000000000000000000000000000000000000000000000000000008152600401610510906116a1565b60405180910390fd5b4281608001511061055f576040517f08c379a00000000000000000000000000000000000000000000000000000000081526004016105569061170d565b60405180910390fd5b6000806000600260038111156105785761057761113e565b5b8460000151600381111561058f5761058e61113e565b5b036105be576105a68460600151856080015161096a565b915083602001518210156105b957600192505b61066f565b6003808111156105d1576105d061113e565b5b846000015160038111156105e8576105e761113e565b5b03610617576105ff8460600151856080015161096a565b9150836020015182111561061257600192505b61066e565b6001600381111561062b5761062a61113e565b5b846000015160038111156106425761064161113e565b5b0361066d5761065984606001518560800151610ab0565b9050836040015181111561066c57600192505b5b5b5b82156107c8576000606461068b8660600151876080015161085c565b610695919061175c565b90506106d66040518060400160405280600981526020017f42616c616e63653a20000000000000000000000000000000000000000000000081525047610be0565b80471015610719576040517f08c379a000000000000000000000000000000000000000000000000000000000815260040161071090611810565b60405180910390fd5b60003373ffffffffffffffffffffffffffffffffffffffff168260405161073f90611861565b60006040518083038185875af1925050503d806000811461077c576040519150601f19603f3d011682016040523d82523d6000602084013e610781565b606091505b50509050806107c5576040517f08c379a00000000000000000000000000000000000000000000000000000000081526004016107bc906118e8565b60405180910390fd5b50505b600260009054906101000a900473ffffffffffffffffffffffffffffffffffffffff1673ffffffffffffffffffffffffffffffffffffffff166342966c68866040518263ffffffff1660e01b8152600401610823919061104d565b600060405180830381600087803b15801561083d57600080fd5b505af1158015610851573d6000803e3d6000fd5b505050505050505050565b60008282116108a0576040517f08c379a00000000000000000000000000000000000000000000000000000000081526004016108979061125c565b60405180910390fd5b60006201518084846108b29190611908565b6108bc919061196b565b9050662386f26fc10000816108d1919061175c565b91505092915050565b600260009054906101000a900473ffffffffffffffffffffffffffffffffffffffff1681565b61093e6040518060400160405280600e81526020017f63616c6c65642072656365697665000000000000000000000000000000000000815250610c7c565b565b6000600260009054906101000a900473ffffffffffffffffffffffffffffffffffffffff16905090565b60008061099660008054906101000a900473ffffffffffffffffffffffffffffffffffffffff16610d15565b905060006109a48583610d8d565b905060008190505b60008169ffffffffffffffffffff161115610aa75760008060008054906101000a900473ffffffffffffffffffffffffffffffffffffffff1673ffffffffffffffffffffffffffffffffffffffff16639a6fc8f5846040518263ffffffff1660e01b8152600401610a1d91906119c1565b60a060405180830381865afa158015610a3a573d6000803e3d6000fd5b505050506040513d601f19601f82011682018060405250810190610a5e9190611a3e565b5093505092505086811115610a74575050610a94565b87811015610a83575050610aa7565b8186610a8f9190611ab9565b955050505b8080610a9f90611aed565b9150506109ac565b50505092915050565b600080610ade600160009054906101000a900473ffffffffffffffffffffffffffffffffffffffff16610d15565b905060008190505b60008169ffffffffffffffffffff161115610bd8576000806000600160009054906101000a900473ffffffffffffffffffffffffffffffffffffffff1673ffffffffffffffffffffffffffffffffffffffff16639a6fc8f5856040518263ffffffff1660e01b8152600401610b5b91906119c1565b60a060405180830381865afa158015610b78573d6000803e3d6000fd5b505050506040513d601f19601f82011682018060405250810190610b9c9190611a3e565b509350509250925087811015610bb457505050610bd8565b8186610bc09190611ab9565b95505050508080610bd090611aed565b915050610ae6565b505092915050565b610c788282604051602401610bf6929190611b84565b6040516020818303038152906040527fb60e72cc000000000000000000000000000000000000000000000000000000007bffffffffffffffffffffffffffffffffffffffffffffffffffffffff19166020820180517bffffffffffffffffffffffffffffffffffffffffffffffffffffffff8381831617835250505050610ec4565b5050565b610d1281604051602401610c909190611bb4565b6040516020818303038152906040527f41304fac000000000000000000000000000000000000000000000000000000007bffffffffffffffffffffffffffffffffffffffffffffffffffffffff19166020820180517bffffffffffffffffffffffffffffffffffffffffffffffffffffffff8381831617835250505050610ec4565b50565b60008173ffffffffffffffffffffffffffffffffffffffff1663668a0f026040518163ffffffff1660e01b8152600401602060405180830381865afa158015610d62573d6000803e3d6000fd5b505050506040513d601f19601f82011682018060405250810190610d869190611bd6565b9050919050565b6000806001905060008390508392505b8069ffffffffffffffffffff168269ffffffffffffffffffff1611610ebc57600060028383610dcc9190611c03565b610dd69190611c41565b83610de19190611c72565b905060008060009054906101000a900473ffffffffffffffffffffffffffffffffffffffff1673ffffffffffffffffffffffffffffffffffffffff16639a6fc8f5836040518263ffffffff1660e01b8152600401610e3f91906119c1565b60a060405180830381865afa158015610e5c573d6000803e3d6000fd5b505050506040513d601f19601f82011682018060405250810190610e809190611a3e565b50935050505086811015610ea257600182610e9b9190611c72565b9350610eb5565b819450600182610eb29190611c03565b92505b5050610d9d565b505092915050565b610edb81610ed3610ede610eff565b63ffffffff16565b50565b60006a636f6e736f6c652e6c6f679050600080835160208501845afa505050565b610f0a819050919050565b610f12611cb0565b565b6000604051905090565b600080fd5b6000819050919050565b610f3681610f23565b8114610f4157600080fd5b50565b600081359050610f5381610f2d565b92915050565b60048110610f6657600080fd5b50565b600081359050610f7881610f59565b92915050565b600080600060608486031215610f9757610f96610f1e565b5b6000610fa586828701610f44565b9350506020610fb686828701610f44565b9250506040610fc786828701610f69565b9150509250925092565b600060208284031215610fe757610fe6610f1e565b5b6000610ff584828501610f44565b91505092915050565b6000806040838503121561101557611014610f1e565b5b600061102385828601610f44565b925050602061103485828601610f44565b9150509250929050565b61104781610f23565b82525050565b6000602082019050611062600083018461103e565b92915050565b600073ffffffffffffffffffffffffffffffffffffffff82169050919050565b6000819050919050565b60006110ad6110a86110a384611068565b611088565b611068565b9050919050565b60006110bf82611092565b9050919050565b60006110d1826110b4565b9050919050565b6110e1816110c6565b82525050565b60006020820190506110fc60008301846110d8565b92915050565b600061110d82611068565b9050919050565b61111d81611102565b82525050565b60006020820190506111386000830184611114565b92915050565b7f4e487b7100000000000000000000000000000000000000000000000000000000600052602160045260246000fd5b600082825260208201905092915050565b7f696e737572616e636520747970652073686f756c64206e6f7420626520300000600082015250565b60006111b4601e8361116d565b91506111bf8261117e565b602082019050919050565b600060208201905081810360008301526111e3816111a7565b9050919050565b7f656e64446174652073686f756c6420626520616674657220737461727444617460008201527f6500000000000000000000000000000000000000000000000000000000000000602082015250565b600061124660218361116d565b9150611251826111ea565b604082019050919050565b6000602082019050818103600083015261127581611239565b9050919050565b7f496e73756666696369656e74204554482073656e7420666f722074686520737060008201527f65636966696564206475726174696f6e00000000000000000000000000000000602082015250565b60006112d860308361116d565b91506112e38261127c565b604082019050919050565b60006020820190508181036000830152611307816112cb565b9050919050565b6004811061131f5761131e61113e565b5b50565b60008190506113308261130e565b919050565b600061134082611322565b9050919050565b61135081611335565b82525050565b61135f81610f23565b82525050565b60a08201600082015161137b6000850182611347565b50602082015161138e6020850182611356565b5060408201516113a16040850182611356565b5060608201516113b46060850182611356565b5060808201516113c76080850182611356565b50505050565b600060c0820190506113e26000830185611114565b6113ef6020830184611365565b9392505050565b6113ff81611102565b811461140a57600080fd5b50565b60008151905061141c816113f6565b92915050565b60006020828403121561143857611437610f1e565b5b60006114468482850161140d565b91505092915050565b7f6e6f7420746865206f776e6572206f66207468697320746f6b656e0000000000600082015250565b6000611485601b8361116d565b91506114908261144f565b602082019050919050565b600060208201905081810360008301526114b481611478565b9050919050565b600080fd5b6000601f19601f8301169050919050565b7f4e487b7100000000000000000000000000000000000000000000000000000000600052604160045260246000fd5b611509826114c0565b810181811067ffffffffffffffff82111715611528576115276114d1565b5b80604052505050565b600061153b610f14565b90506115478282611500565b919050565b60008151905061155b81610f59565b92915050565b60008151905061157081610f2d565b92915050565b600060a0828403121561158c5761158b6114bb565b5b61159660a0611531565b905060006115a68482850161154c565b60008301525060206115ba84828501611561565b60208301525060406115ce84828501611561565b60408301525060606115e284828501611561565b60608301525060806115f684828501611561565b60808301525092915050565b600060a0828403121561161857611617610f1e565b5b600061162684828501611576565b91505092915050565b7f6e6f20696e737572616e636520706f6c69637920666f72207468697320746f6b60008201527f656e000000000000000000000000000000000000000000000000000000000000602082015250565b600061168b60228361116d565b91506116968261162f565b604082019050919050565b600060208201905081810360008301526116ba8161167e565b9050919050565b7f656e644461746520686173206e6f742070617373656400000000000000000000600082015250565b60006116f760168361116d565b9150611702826116c1565b602082019050919050565b60006020820190508181036000830152611726816116ea565b9050919050565b7f4e487b7100000000000000000000000000000000000000000000000000000000600052601160045260246000fd5b600061176782610f23565b915061177283610f23565b925082820261178081610f23565b915082820484148315176117975761179661172d565b5b5092915050565b7f496e73756666696369656e7420636f6e74726163742062616c616e636520666f60008201527f72207061796f7574000000000000000000000000000000000000000000000000602082015250565b60006117fa60288361116d565b91506118058261179e565b604082019050919050565b60006020820190508181036000830152611829816117ed565b9050919050565b600081905092915050565b50565b600061184b600083611830565b91506118568261183b565b600082019050919050565b600061186c8261183e565b9150819050919050565b7f4661696c656420746f207472616e736665722045544820746f20636c61696d6560008201527f7200000000000000000000000000000000000000000000000000000000000000602082015250565b60006118d260218361116d565b91506118dd82611876565b604082019050919050565b60006020820190508181036000830152611901816118c5565b9050919050565b600061191382610f23565b915061191e83610f23565b92508282039050818111156119365761193561172d565b5b92915050565b7f4e487b7100000000000000000000000000000000000000000000000000000000600052601260045260246000fd5b600061197682610f23565b915061198183610f23565b9250826119915761199061193c565b5b828204905092915050565b600069ffffffffffffffffffff82169050919050565b6119bb8161199c565b82525050565b60006020820190506119d660008301846119b2565b92915050565b6119e58161199c565b81146119f057600080fd5b50565b600081519050611a02816119dc565b92915050565b6000819050919050565b611a1b81611a08565b8114611a2657600080fd5b50565b600081519050611a3881611a12565b92915050565b600080600080600060a08688031215611a5a57611a59610f1e565b5b6000611a68888289016119f3565b9550506020611a7988828901611a29565b9450506040611a8a88828901611561565b9350506060611a9b88828901611561565b9250506080611aac888289016119f3565b9150509295509295909350565b6000611ac482610f23565b9150611acf83610f23565b9250828201905080821115611ae757611ae661172d565b5b92915050565b6000611af88261199c565b915060008203611b0b57611b0a61172d565b5b600182039050919050565b600081519050919050565b60005b83811015611b3f578082015181840152602081019050611b24565b60008484015250505050565b6000611b5682611b16565b611b60818561116d565b9350611b70818560208601611b21565b611b79816114c0565b840191505092915050565b60006040820190508181036000830152611b9e8185611b4b565b9050611bad602083018461103e565b9392505050565b60006020820190508181036000830152611bce8184611b4b565b905092915050565b600060208284031215611bec57611beb610f1e565b5b6000611bfa84828501611561565b91505092915050565b6000611c0e8261199c565b9150611c198361199c565b9250828203905069ffffffffffffffffffff811115611c3b57611c3a61172d565b5b92915050565b6000611c4c8261199c565b9150611c578361199c565b925082611c6757611c6661193c565b5b828204905092915050565b6000611c7d8261199c565b9150611c888361199c565b9250828201905069ffffffffffffffffffff811115611caa57611ca961172d565b5b92915050565b7f4e487b7100000000000000000000000000000000000000000000000000000000600052605160045260246000fdfea2646970667358221220078bf14009112021150a7d0457919cb1582a6c62ccd1b2963df0a46cdf5a6a8364736f6c634300081b0033608060405234801561001057600080fd5b506040518060400160405280600e81526020017f41677269536869656c64204e46540000000000000000000000000000000000008152506040518060400160405280600381526020017f415348000000000000000000000000000000000000000000000000000000000081525033600073ffffffffffffffffffffffffffffffffffffffff168173ffffffffffffffffffffffffffffffffffffffff16036100f05760006040517f1e4fbdf70000000000000000000000000000000000000000000000000000000081526004016100e79190610234565b60405180910390fd5b6100ff8161012f60201b60201c565b50816001908161010f919061049f565b50806002908161011f919061049f565b5050506000600781905550610571565b60008060009054906101000a900473ffffffffffffffffffffffffffffffffffffffff169050816000806101000a81548173ffffffffffffffffffffffffffffffffffffffff021916908373ffffffffffffffffffffffffffffffffffffffff1602179055508173ffffffffffffffffffffffffffffffffffffffff168173ffffffffffffffffffffffffffffffffffffffff167f8be0079c531659141344cd1fd0a4f28419497f9722a3daafe3b4186f6b6457e060405160405180910390a35050565b600073ffffffffffffffffffffffffffffffffffffffff82169050919050565b600061021e826101f3565b9050919050565b61022e81610213565b82525050565b60006020820190506102496000830184610225565b92915050565b600081519050919050565b7f4e487b7100000000000000000000000000000000000000000000000000000000600052604160045260246000fd5b7f4e487b7100000000000000000000000000000000000000000000000000000000600052602260045260246000fd5b600060028204905060018216806102d057607f821691505b6020821081036102e3576102e2610289565b5b50919050565b60008190508160005260206000209050919050565b60006020601f8301049050919050565b600082821b905092915050565b60006008830261034b7fffffffffffffffffffffffffffffffffffffffffffffffffffffffffffffffff8261030e565b610355868361030e565b95508019841693508086168417925050509392505050565b6000819050919050565b6000819050919050565b600061039c6103976103928461036d565b610377565b61036d565b9050919050565b6000819050919050565b6103b683610381565b6103ca6103c2826103a3565b84845461031b565b825550505050565b600090565b6103df6103d2565b6103ea8184846103ad565b505050565b5b8181101561040e576104036000826103d7565b6001810190506103f0565b5050565b601f82111561045357610424816102e9565b61042d846102fe565b8101602085101561043c578190505b610450610448856102fe565b8301826103ef565b50505b505050565b600082821c905092915050565b600061047660001984600802610458565b1980831691505092915050565b600061048f8383610465565b9150826002028217905092915050565b6104a88261024f565b67ffffffffffffffff8111156104c1576104c061025a565b5b6104cb82546102b8565b6104d6828285610412565b600060209050601f83116001811461050957600084156104f7578287015190505b6105018582610483565b865550610569565b601f198416610517866102e9565b60005b8281101561053f5784890151825560018201915060208501945060208101905061051a565b8683101561055c5784890151610558601f891682610465565b8355505b6001600288020188555050505b505050505050565b61265e806105806000396000f3fe608060405234801561001057600080fd5b50600436106101375760003560e01c806370a08231116100b8578063b6f2d6bf1161007c578063b6f2d6bf14610338578063b88d4fde1461036c578063c87b56dd14610388578063d082e381146103b8578063e985e9c5146103d6578063f2fde38b1461040657610137565b806370a08231146102a6578063715018a6146102d65780638da5cb5b146102e057806395d89b41146102fe578063a22cb4651461031c57610137565b8063104f3b72116100ff578063104f3b721461020657806323b872dd1461022257806342842e0e1461023e57806342966c681461025a5780636352211e1461027657610137565b806301ffc9a71461013c57806302f2fc5c1461016c57806306fdde031461019c578063081812fc146101ba578063095ea7b3146101ea575b600080fd5b61015660048036038101906101519190611bd0565b610422565b6040516101639190611c18565b60405180910390f35b61018660048036038101906101819190611c69565b610504565b6040516101939190611d84565b60405180910390f35b6101a4610594565b6040516101b19190611e2f565b60405180910390f35b6101d460048036038101906101cf9190611c69565b610626565b6040516101e19190611e92565b60405180910390f35b61020460048036038101906101ff9190611ed9565b610642565b005b610220600480360381019061021b919061204a565b610658565b005b61023c6004803603810190610237919061208a565b6106fd565b005b6102586004803603810190610253919061208a565b6107ff565b005b610274600480360381019061026f9190611c69565b61081f565b005b610290600480360381019061028b9190611c69565b610833565b60405161029d9190611e92565b60405180910390f35b6102c060048036038101906102bb91906120dd565b610845565b6040516102cd9190612119565b60405180910390f35b6102de6108ff565b005b6102e8610913565b6040516102f59190611e92565b60405180910390f35b61030661093c565b6040516103139190611e2f565b60405180910390f35b61033660048036038101906103319190612160565b6109ce565b005b610352600480360381019061034d9190611c69565b6109e4565b6040516103639594939291906121af565b60405180910390f35b610386600480360381019061038191906122bc565b610a27565b005b6103a2600480360381019061039d9190611c69565b610a4c565b6040516103af9190611e2f565b60405180910390f35b6103c0610ab5565b6040516103cd9190612119565b60405180910390f35b6103f060048036038101906103eb919061233f565b610abb565b6040516103fd9190611c18565b60405180910390f35b610420600480360381019061041b91906120dd565b610b4f565b005b60007f80ac58cd000000000000000000000000000000000000000000000000000000007bffffffffffffffffffffffffffffffffffffffffffffffffffffffff1916827bffffffffffffffffffffffffffffffffffffffffffffffffffffffff191614806104ed57507f5b5e139f000000000000000000000000000000000000000000000000000000007bffffffffffffffffffffffffffffffffffffffffffffffffffffffff1916827bffffffffffffffffffffffffffffffffffffffffffffffffffffffff1916145b806104fd57506104fc82610bd5565b5b9050919050565b61050c611b23565b600860008381526020019081526020016000206040518060a00160405290816000820160009054906101000a900460ff16600381111561054f5761054e611c96565b5b600381111561056157610560611c96565b5b81526020016001820154815260200160028201548152602001600382015481526020016004820154815250509050919050565b6060600180546105a3906123ae565b80601f01602080910402602001604051908101604052809291908181526020018280546105cf906123ae565b801561061c5780601f106105f15761010080835404028352916020019161061c565b820191906000526020600020905b8154815290600101906020018083116105ff57829003601f168201915b5050505050905090565b600061063182610c3f565b5061063b82610cc7565b9050919050565b610654828261064f610d04565b610d0c565b5050565b610660610d1e565b60006007549050816008600083815260200190815260200160002060008201518160000160006101000a81548160ff021916908360038111156106a6576106a5611c96565b5b021790555060208201518160010155604082015181600201556060820151816003015560808201518160040155905050600760008154809291906106e99061240e565b91905055506106f88382610da5565b505050565b600073ffffffffffffffffffffffffffffffffffffffff168273ffffffffffffffffffffffffffffffffffffffff160361076f5760006040517f64a0ae920000000000000000000000000000000000000000000000000000000081526004016107669190611e92565b60405180910390fd5b6000610783838361077e610d04565b610dc3565b90508373ffffffffffffffffffffffffffffffffffffffff168173ffffffffffffffffffffffffffffffffffffffff16146107f9578382826040517f64283d7b0000000000000000000000000000000000000000000000000000000081526004016107f093929190612456565b60405180910390fd5b50505050565b61081a83838360405180602001604052806000815250610a27565b505050565b610827610d1e565b61083081610fdd565b50565b600061083e82610c3f565b9050919050565b60008073ffffffffffffffffffffffffffffffffffffffff168273ffffffffffffffffffffffffffffffffffffffff16036108b85760006040517f89c62b640000000000000000000000000000000000000000000000000000000081526004016108af9190611e92565b60405180910390fd5b600460008373ffffffffffffffffffffffffffffffffffffffff1673ffffffffffffffffffffffffffffffffffffffff168152602001908152602001600020549050919050565b610907610d1e565b6109116000611063565b565b60008060009054906101000a900473ffffffffffffffffffffffffffffffffffffffff16905090565b60606002805461094b906123ae565b80601f0160208091040260200160405190810160405280929190818152602001828054610977906123ae565b80156109c45780601f10610999576101008083540402835291602001916109c4565b820191906000526020600020905b8154815290600101906020018083116109a757829003601f168201915b5050505050905090565b6109e06109d9610d04565b8383611127565b5050565b60086020528060005260406000206000915090508060000160009054906101000a900460ff16908060010154908060020154908060030154908060040154905085565b610a328484846106fd565b610a46610a3d610d04565b85858585611296565b50505050565b6060610a5782610c3f565b506000610a62611447565b90506000815111610a825760405180602001604052806000815250610aad565b80610a8c8461145e565b604051602001610a9d9291906124c9565b6040516020818303038152906040525b915050919050565b60075481565b6000600660008473ffffffffffffffffffffffffffffffffffffffff1673ffffffffffffffffffffffffffffffffffffffff16815260200190815260200160002060008373ffffffffffffffffffffffffffffffffffffffff1673ffffffffffffffffffffffffffffffffffffffff16815260200190815260200160002060009054906101000a900460ff16905092915050565b610b57610d1e565b600073ffffffffffffffffffffffffffffffffffffffff168173ffffffffffffffffffffffffffffffffffffffff1603610bc95760006040517f1e4fbdf7000000000000000000000000000000000000000000000000000000008152600401610bc09190611e92565b60405180910390fd5b610bd281611063565b50565b60007f01ffc9a7000000000000000000000000000000000000000000000000000000007bffffffffffffffffffffffffffffffffffffffffffffffffffffffff1916827bffffffffffffffffffffffffffffffffffffffffffffffffffffffff1916149050919050565b600080610c4b8361152c565b9050600073ffffffffffffffffffffffffffffffffffffffff168173ffffffffffffffffffffffffffffffffffffffff1603610cbe57826040517f7e273289000000000000000000000000000000000000000000000000000000008152600401610cb59190612119565b60405180910390fd5b80915050919050565b60006005600083815260200190815260200160002060009054906101000a900473ffffffffffffffffffffffffffffffffffffffff169050919050565b600033905090565b610d198383836001611569565b505050565b610d26610d04565b73ffffffffffffffffffffffffffffffffffffffff16610d44610913565b73ffffffffffffffffffffffffffffffffffffffff1614610da357610d67610d04565b6040517f118cdaa7000000000000000000000000000000000000000000000000000000008152600401610d9a9190611e92565b60405180910390fd5b565b610dbf82826040518060200160405280600081525061172e565b5050565b600080610dcf8461152c565b9050600073ffffffffffffffffffffffffffffffffffffffff168373ffffffffffffffffffffffffffffffffffffffff1614610e1157610e10818486611752565b5b600073ffffffffffffffffffffffffffffffffffffffff168173ffffffffffffffffffffffffffffffffffffffff1614610ea257610e53600085600080611569565b6001600460008373ffffffffffffffffffffffffffffffffffffffff1673ffffffffffffffffffffffffffffffffffffffff168152602001908152602001600020600082825403925050819055505b600073ffffffffffffffffffffffffffffffffffffffff168573ffffffffffffffffffffffffffffffffffffffff1614610f25576001600460008773ffffffffffffffffffffffffffffffffffffffff1673ffffffffffffffffffffffffffffffffffffffff168152602001908152602001600020600082825401925050819055505b846003600086815260200190815260200160002060006101000a81548173ffffffffffffffffffffffffffffffffffffffff021916908373ffffffffffffffffffffffffffffffffffffffff160217905550838573ffffffffffffffffffffffffffffffffffffffff168273ffffffffffffffffffffffffffffffffffffffff167fddf252ad1be2c89b69c2b068fc378daa952ba7f163c4a11628f55a4df523b3ef60405160405180910390a4809150509392505050565b6000610fec6000836000610dc3565b9050600073ffffffffffffffffffffffffffffffffffffffff168173ffffffffffffffffffffffffffffffffffffffff160361105f57816040517f7e2732890000000000000000000000000000000000000000000000000000000081526004016110569190612119565b60405180910390fd5b5050565b60008060009054906101000a900473ffffffffffffffffffffffffffffffffffffffff169050816000806101000a81548173ffffffffffffffffffffffffffffffffffffffff021916908373ffffffffffffffffffffffffffffffffffffffff1602179055508173ffffffffffffffffffffffffffffffffffffffff168173ffffffffffffffffffffffffffffffffffffffff167f8be0079c531659141344cd1fd0a4f28419497f9722a3daafe3b4186f6b6457e060405160405180910390a35050565b600073ffffffffffffffffffffffffffffffffffffffff168273ffffffffffffffffffffffffffffffffffffffff160361119857816040517f5b08ba1800000000000000000000000000000000000000000000000000000000815260040161118f9190611e92565b60405180910390fd5b80600660008573ffffffffffffffffffffffffffffffffffffffff1673ffffffffffffffffffffffffffffffffffffffff16815260200190815260200160002060008473ffffffffffffffffffffffffffffffffffffffff1673ffffffffffffffffffffffffffffffffffffffff16815260200190815260200160002060006101000a81548160ff0219169083151502179055508173ffffffffffffffffffffffffffffffffffffffff168373ffffffffffffffffffffffffffffffffffffffff167f17307eab39ab6107e8899845ad3d59bd9653f200f220920489ca2b5937696c31836040516112899190611c18565b60405180910390a3505050565b60008373ffffffffffffffffffffffffffffffffffffffff163b1115611440578273ffffffffffffffffffffffffffffffffffffffff1663150b7a02868685856040518563ffffffff1660e01b81526004016112f59493929190612542565b6020604051808303816000875af192505050801561133157506040513d601f19601f8201168201806040525081019061132e91906125a3565b60015b6113b5573d8060008114611361576040519150601f19603f3d011682016040523d82523d6000602084013e611366565b606091505b5060008151036113ad57836040517f64a0ae920000000000000000000000000000000000000000000000000000000081526004016113a49190611e92565b60405180910390fd5b805181602001fd5b63150b7a0260e01b7bffffffffffffffffffffffffffffffffffffffffffffffffffffffff1916817bffffffffffffffffffffffffffffffffffffffffffffffffffffffff19161461143e57836040517f64a0ae920000000000000000000000000000000000000000000000000000000081526004016114359190611e92565b60405180910390fd5b505b5050505050565b606060405180602001604052806000815250905090565b60606000600161146d84611816565b01905060008167ffffffffffffffff81111561148c5761148b611f1e565b5b6040519080825280601f01601f1916602001820160405280156114be5781602001600182028036833780820191505090505b509050600082602001820190505b600115611521578080600190039150507f3031323334353637383961626364656600000000000000000000000000000000600a86061a8153600a8581611515576115146125d0565b5b049450600085036114cc575b819350505050919050565b60006003600083815260200190815260200160002060009054906101000a900473ffffffffffffffffffffffffffffffffffffffff169050919050565b80806115a25750600073ffffffffffffffffffffffffffffffffffffffff168273ffffffffffffffffffffffffffffffffffffffff1614155b156116d65760006115b284610c3f565b9050600073ffffffffffffffffffffffffffffffffffffffff168373ffffffffffffffffffffffffffffffffffffffff161415801561161d57508273ffffffffffffffffffffffffffffffffffffffff168173ffffffffffffffffffffffffffffffffffffffff1614155b8015611630575061162e8184610abb565b155b1561167257826040517fa9fbf51f0000000000000000000000000000000000000000000000000000000081526004016116699190611e92565b60405180910390fd5b81156116d457838573ffffffffffffffffffffffffffffffffffffffff168273ffffffffffffffffffffffffffffffffffffffff167f8c5be1e5ebec7d5bd14f71427d1e84f3dd0314c0f7b2291e5b200ac8c7c3b92560405160405180910390a45b505b836005600085815260200190815260200160002060006101000a81548173ffffffffffffffffffffffffffffffffffffffff021916908373ffffffffffffffffffffffffffffffffffffffff16021790555050505050565b6117388383611969565b61174d611743610d04565b6000858585611296565b505050565b61175d838383611a62565b61181157600073ffffffffffffffffffffffffffffffffffffffff168373ffffffffffffffffffffffffffffffffffffffff16036117d257806040517f7e2732890000000000000000000000000000000000000000000000000000000081526004016117c99190612119565b60405180910390fd5b81816040517f177e802f0000000000000000000000000000000000000000000000000000000081526004016118089291906125ff565b60405180910390fd5b505050565b600080600090507a184f03e93ff9f4daa797ed6e38ed64bf6a1f0100000000000000008310611874577a184f03e93ff9f4daa797ed6e38ed64bf6a1f010000000000000000838161186a576118696125d0565b5b0492506040810190505b6d04ee2d6d415b85acef810000000083106118b1576d04ee2d6d415b85acef810000000083816118a7576118a66125d0565b5b0492506020810190505b662386f26fc1000083106118e057662386f26fc1000083816118d6576118d56125d0565b5b0492506010810190505b6305f5e1008310611909576305f5e10083816118ff576118fe6125d0565b5b0492506008810190505b612710831061192e576127108381611924576119236125d0565b5b0492506004810190505b606483106119515760648381611947576119466125d0565b5b0492506002810190505b600a8310611960576001810190505b80915050919050565b600073ffffffffffffffffffffffffffffffffffffffff168273ffffffffffffffffffffffffffffffffffffffff16036119db5760006040517f64a0ae920000000000000000000000000000000000000000000000000000000081526004016119d29190611e92565b60405180910390fd5b60006119e983836000610dc3565b9050600073ffffffffffffffffffffffffffffffffffffffff168173ffffffffffffffffffffffffffffffffffffffff1614611a5d5760006040517f73c6ac6e000000000000000000000000000000000000000000000000000000008152600401611a549190611e92565b60405180910390fd5b505050565b60008073ffffffffffffffffffffffffffffffffffffffff168373ffffffffffffffffffffffffffffffffffffffff1614158015611b1a57508273ffffffffffffffffffffffffffffffffffffffff168473ffffffffffffffffffffffffffffffffffffffff161480611adb5750611ada8484610abb565b5b80611b1957508273ffffffffffffffffffffffffffffffffffffffff16611b0183610cc7565b73ffffffffffffffffffffffffffffffffffffffff16145b5b90509392505050565b6040518060a0016040528060006003811115611b4257611b41611c96565b5b8152602001600081526020016000815260200160008152602001600081525090565b6000604051905090565b600080fd5b600080fd5b60007fffffffff0000000000000000000000000000000000000000000000000000000082169050919050565b611bad81611b78565b8114611bb857600080fd5b50565b600081359050611bca81611ba4565b92915050565b600060208284031215611be657611be5611b6e565b5b6000611bf484828501611bbb565b91505092915050565b60008115159050919050565b611c1281611bfd565b82525050565b6000602082019050611c2d6000830184611c09565b92915050565b6000819050919050565b611c4681611c33565b8114611c5157600080fd5b50565b600081359050611c6381611c3d565b92915050565b600060208284031215611c7f57611c7e611b6e565b5b6000611c8d84828501611c54565b91505092915050565b7f4e487b7100000000000000000000000000000000000000000000000000000000600052602160045260246000fd5b60048110611cd657611cd5611c96565b5b50565b6000819050611ce782611cc5565b919050565b6000611cf782611cd9565b9050919050565b611d0781611cec565b82525050565b611d1681611c33565b82525050565b60a082016000820151611d326000850182611cfe565b506020820151611d456020850182611d0d565b506040820151611d586040850182611d0d565b506060820151611d6b6060850182611d0d565b506080820151611d7e6080850182611d0d565b50505050565b600060a082019050611d996000830184611d1c565b92915050565b600081519050919050565b600082825260208201905092915050565b60005b83811015611dd9578082015181840152602081019050611dbe565b60008484015250505050565b6000601f19601f8301169050919050565b6000611e0182611d9f565b611e0b8185611daa565b9350611e1b818560208601611dbb565b611e2481611de5565b840191505092915050565b60006020820190508181036000830152611e498184611df6565b905092915050565b600073ffffffffffffffffffffffffffffffffffffffff82169050919050565b6000611e7c82611e51565b9050919050565b611e8c81611e71565b82525050565b6000602082019050611ea76000830184611e83565b92915050565b611eb681611e71565b8114611ec157600080fd5b50565b600081359050611ed381611ead565b92915050565b60008060408385031215611ef057611eef611b6e565b5b6000611efe85828601611ec4565b9250506020611f0f85828601611c54565b9150509250929050565b600080fd5b7f4e487b7100000000000000000000000000000000000000000000000000000000600052604160045260246000fd5b611f5682611de5565b810181811067ffffffffffffffff82111715611f7557611f74611f1e565b5b80604052505050565b6000611f88611b64565b9050611f948282611f4d565b919050565b60048110611fa657600080fd5b50565b600081359050611fb881611f99565b92915050565b600060a08284031215611fd457611fd3611f19565b5b611fde60a0611f7e565b90506000611fee84828501611fa9565b600083015250602061200284828501611c54565b602083015250604061201684828501611c54565b604083015250606061202a84828501611c54565b606083015250608061203e84828501611c54565b60808301525092915050565b60008060c0838503121561206157612060611b6e565b5b600061206f85828601611ec4565b925050602061208085828601611fbe565b9150509250929050565b6000806000606084860312156120a3576120a2611b6e565b5b60006120b186828701611ec4565b93505060206120c286828701611ec4565b92505060406120d386828701611c54565b9150509250925092565b6000602082840312156120f3576120f2611b6e565b5b600061210184828501611ec4565b91505092915050565b61211381611c33565b82525050565b600060208201905061212e600083018461210a565b92915050565b61213d81611bfd565b811461214857600080fd5b50565b60008135905061215a81612134565b92915050565b6000806040838503121561217757612176611b6e565b5b600061218585828601611ec4565b92505060206121968582860161214b565b9150509250929050565b6121a981611cec565b82525050565b600060a0820190506121c460008301886121a0565b6121d1602083018761210a565b6121de604083018661210a565b6121eb606083018561210a565b6121f8608083018461210a565b9695505050505050565b600080fd5b600080fd5b600067ffffffffffffffff82111561222757612226611f1e565b5b61223082611de5565b9050602081019050919050565b82818337600083830152505050565b600061225f61225a8461220c565b611f7e565b90508281526020810184848401111561227b5761227a612207565b5b61228684828561223d565b509392505050565b600082601f8301126122a3576122a2612202565b5b81356122b384826020860161224c565b91505092915050565b600080600080608085870312156122d6576122d5611b6e565b5b60006122e487828801611ec4565b94505060206122f587828801611ec4565b935050604061230687828801611c54565b925050606085013567ffffffffffffffff81111561232757612326611b73565b5b6123338782880161228e565b91505092959194509250565b6000806040838503121561235657612355611b6e565b5b600061236485828601611ec4565b925050602061237585828601611ec4565b9150509250929050565b7f4e487b7100000000000000000000000000000000000000000000000000000000600052602260045260246000fd5b600060028204905060018216806123c657607f821691505b6020821081036123d9576123d861237f565b5b50919050565b7f4e487b7100000000000000000000000000000000000000000000000000000000600052601160045260246000fd5b600061241982611c33565b91507fffffffffffffffffffffffffffffffffffffffffffffffffffffffffffffffff820361244b5761244a6123df565b5b600182019050919050565b600060608201905061246b6000830186611e83565b612478602083018561210a565b6124856040830184611e83565b949350505050565b600081905092915050565b60006124a382611d9f565b6124ad818561248d565b93506124bd818560208601611dbb565b80840191505092915050565b60006124d58285612498565b91506124e18284612498565b91508190509392505050565b600081519050919050565b600082825260208201905092915050565b6000612514826124ed565b61251e81856124f8565b935061252e818560208601611dbb565b61253781611de5565b840191505092915050565b60006080820190506125576000830187611e83565b6125646020830186611e83565b612571604083018561210a565b81810360608301526125838184612509565b905095945050505050565b60008151905061259d81611ba4565b92915050565b6000602082840312156125b9576125b8611b6e565b5b60006125c78482850161258e565b91505092915050565b7f4e487b7100000000000000000000000000000000000000000000000000000000600052601260045260246000fd5b60006040820190506126146000830185611e83565b612621602083018461210a565b939250505056fea26469706673582212204d79217e2d213d0286b637381fdfa52d639ad6f58dace24e6948507e5065be1d64736f6c634300081b0033",
    "linkReferences": {},
    "deployedLinkReferences": {}
}