{
    "_format": "hh-sol-artifact-1",
    "contractName": "AgriShield",
    "sourceName": "contracts/AgriShield.sol",
    "abi": [
        {
            "inputs": [
                {
                    "internalType": "address",
                    "name": "_dataFeedStore",
                    "type": "address"
                }
            ],
            "stateMutability": "nonpayable",
            "type": "constructor"
        },
        {
            "inputs": [
                {
                    "internalType": "uint256",
                    "name": "tokenId",
                    "type": "uint256"
                }
            ],
            "name": "claim",
            "outputs": [],
            "stateMutability": "nonpayable",
            "type": "function"
        },
        {
            "inputs": [],
            "name": "getNftAddress",
            "outputs": [
                {
                    "internalType": "address",
                    "name": "",
                    "type": "address"
                }
            ],
            "stateMutability": "view",
            "type": "function"
        },
        {
            "inputs": [
                {
                    "internalType": "uint256",
                    "name": "startDate",
                    "type": "uint256"
                },
                {
                    "internalType": "uint256",
                    "name": "endDate",
                    "type": "uint256"
                }
            ],
            "name": "getRequiredPayment",
            "outputs": [
                {
                    "internalType": "uint256",
                    "name": "",
                    "type": "uint256"
                }
            ],
            "stateMutability": "pure",
            "type": "function"
        },
        {
            "inputs": [
                {
                    "internalType": "uint256",
                    "name": "startDate",
                    "type": "uint256"
                },
                {
                    "internalType": "uint256",
                    "name": "endDate",
                    "type": "uint256"
                },
                {
                    "internalType": "enum InsuranceEnums.InsuranceType",
                    "name": "insuranceType",
                    "type": "uint8"
                }
            ],
            "name": "mint",
            "outputs": [],
            "stateMutability": "payable",
            "type": "function"
        },
        {
            "inputs": [],
            "name": "nft",
            "outputs": [
                {
                    "internalType": "contract AgriShieldNFT",
                    "name": "",
                    "type": "address"
                }
            ],
            "stateMutability": "view",
            "type": "function"
        },
        {
            "inputs": [],
            "name": "receive",
            "outputs": [],
            "stateMutability": "payable",
            "type": "function"
        }
    ],
    "bytecode": "0x608060405234801561001057600080fd5b50604051614a5a380380614a5a83398181016040528101906100329190610151565b806000806101000a81548173ffffffffffffffffffffffffffffffffffffffff021916908373ffffffffffffffffffffffffffffffffffffffff16021790555060405161007e906100e1565b604051809103906000f08015801561009a573d6000803e3d6000fd5b50600160006101000a81548173ffffffffffffffffffffffffffffffffffffffff021916908373ffffffffffffffffffffffffffffffffffffffff1602179055505061017e565b612bde80611e7c83390190565b600080fd5b600073ffffffffffffffffffffffffffffffffffffffff82169050919050565b600061011e826100f3565b9050919050565b61012e81610113565b811461013957600080fd5b50565b60008151905061014b81610125565b92915050565b600060208284031215610167576101666100ee565b5b60006101758482850161013c565b91505092915050565b611cef8061018d6000396000f3fe6080604052600436106100555760003560e01c806305b6cb4f1461005a578063379607f514610076578063458a1f991461009f57806347ccca02146100dc578063a3e76c0f14610107578063be9a71bd14610111575b600080fd5b610074600480360381019061006f9190610f58565b61013c565b005b34801561008257600080fd5b5061009d60048036038101906100989190610fab565b610305565b005b3480156100ab57600080fd5b506100c660048036038101906100c19190610fd8565b61085c565b6040516100d39190611027565b60405180910390f35b3480156100e857600080fd5b506100f16108da565b6040516100fe91906110c1565b60405180910390f35b61010f610900565b005b34801561011d57600080fd5b50610126610940565b60405161013391906110fd565b60405180910390f35b600060038111156101505761014f611118565b5b81600381111561016357610162611118565b5b036101a3576040517f08c379a000000000000000000000000000000000000000000000000000000000815260040161019a906111a4565b60405180910390fd5b8282116101e5576040517f08c379a00000000000000000000000000000000000000000000000000000000081526004016101dc90611236565b60405180910390fd5b60006101f1848461085c565b905080341015610236576040517f08c379a000000000000000000000000000000000000000000000000000000000815260040161022d906112c8565b60405180910390fd5b600160009054906101000a900473ffffffffffffffffffffffffffffffffffffffff1673ffffffffffffffffffffffffffffffffffffffff1663104f3b72336040518060a0016040528086600381111561029357610292611118565b5b81526020016000815260200160008152602001888152602001878152506040518363ffffffff1660e01b81526004016102cd9291906113a7565b600060405180830381600087803b1580156102e757600080fd5b505af11580156102fb573d6000803e3d6000fd5b5050505050505050565b3373ffffffffffffffffffffffffffffffffffffffff16600160009054906101000a900473ffffffffffffffffffffffffffffffffffffffff1673ffffffffffffffffffffffffffffffffffffffff16636352211e836040518263ffffffff1660e01b81526004016103779190611027565b602060405180830381865afa158015610394573d6000803e3d6000fd5b505050506040513d601f19601f820116820180604052508101906103b891906113fc565b73ffffffffffffffffffffffffffffffffffffffff161461040e576040517f08c379a000000000000000000000000000000000000000000000000000000000815260040161040590611475565b60405180910390fd5b6000600160009054906101000a900473ffffffffffffffffffffffffffffffffffffffff1673ffffffffffffffffffffffffffffffffffffffff166302f2fc5c836040518263ffffffff1660e01b815260040161046b9190611027565b60a060405180830381865afa158015610488573d6000803e3d6000fd5b505050506040513d601f19601f820116820180604052508101906104ac91906115dc565b9050600060038111156104c2576104c1611118565b5b816000015160038111156104d9576104d8611118565b5b03610519576040517f08c379a00000000000000000000000000000000000000000000000000000000081526004016105109061167b565b60405180910390fd5b4281608001511061055f576040517f08c379a0000000000000000000000000000000000000000000000000000000008152600401610556906116e7565b60405180910390fd5b60008060006002600381111561057857610577611118565b5b8460000151600381111561058f5761058e611118565b5b036105be576105a68460600151856080015161096a565b915083602001518210156105b957600192505b61066f565b6003808111156105d1576105d0611118565b5b846000015160038111156105e8576105e7611118565b5b03610617576105ff8460600151856080015161096a565b9150836020015182111561061257600192505b61066e565b6001600381111561062b5761062a611118565b5b8460000151600381111561064257610641611118565b5b0361066d5761065984606001518560800151610a8f565b9050836040015181111561066c57600192505b5b5b5b82156107c8576000606461068b8660600151876080015161085c565b6106959190611736565b90506106d66040518060400160405280600981526020017f42616c616e63653a20000000000000000000000000000000000000000000000081525047610b9b565b80471015610719576040517f08c379a0000000000000000000000000000000000000000000000000000000008152600401610710906117ea565b60405180910390fd5b60003373ffffffffffffffffffffffffffffffffffffffff168260405161073f9061183b565b60006040518083038185875af1925050503d806000811461077c576040519150601f19603f3d011682016040523d82523d6000602084013e610781565b606091505b50509050806107c5576040517f08c379a00000000000000000000000000000000000000000000000000000000081526004016107bc906118c2565b60405180910390fd5b50505b600160009054906101000a900473ffffffffffffffffffffffffffffffffffffffff1673ffffffffffffffffffffffffffffffffffffffff166342966c68866040518263ffffffff1660e01b81526004016108239190611027565b600060405180830381600087803b15801561083d57600080fd5b505af1158015610851573d6000803e3d6000fd5b505050505050505050565b60008282116108a0576040517f08c379a000000000000000000000000000000000000000000000000000000000815260040161089790611236565b60405180910390fd5b60006201518084846108b291906118e2565b6108bc9190611945565b9050662386f26fc10000816108d19190611736565b91505092915050565b600160009054906101000a900473ffffffffffffffffffffffffffffffffffffffff1681565b61093e6040518060400160405280600e81526020017f63616c6c65642072656365697665000000000000000000000000000000000000815250610c37565b565b6000600160009054906101000a900473ffffffffffffffffffffffffffffffffffffffff16905090565b600080610975610cd0565b905060006109838583610d67565b905060008190505b60008169ffffffffffffffffffff161115610a865760008060008054906101000a900473ffffffffffffffffffffffffffffffffffffffff1673ffffffffffffffffffffffffffffffffffffffff16639a6fc8f5846040518263ffffffff1660e01b81526004016109fc919061199b565b60a060405180830381865afa158015610a19573d6000803e3d6000fd5b505050506040513d601f19601f82011682018060405250810190610a3d9190611a18565b5093505092505086811115610a53575050610a73565b87811015610a62575050610a86565b8186610a6e9190611a93565b955050505b8080610a7e90611ac7565b91505061098b565b50505092915050565b600080610a9a610cd0565b905060008190505b60008169ffffffffffffffffffff161115610b935760008060008060009054906101000a900473ffffffffffffffffffffffffffffffffffffffff1673ffffffffffffffffffffffffffffffffffffffff16639a6fc8f5856040518263ffffffff1660e01b8152600401610b16919061199b565b60a060405180830381865afa158015610b33573d6000803e3d6000fd5b505050506040513d601f19601f82011682018060405250810190610b579190611a18565b509350509250925087811015610b6f57505050610b93565b8186610b7b9190611a93565b95505050508080610b8b90611ac7565b915050610aa2565b505092915050565b610c338282604051602401610bb1929190611b5e565b6040516020818303038152906040527fb60e72cc000000000000000000000000000000000000000000000000000000007bffffffffffffffffffffffffffffffffffffffffffffffffffffffff19166020820180517bffffffffffffffffffffffffffffffffffffffffffffffffffffffff8381831617835250505050610e9e565b5050565b610ccd81604051602401610c4b9190611b8e565b6040516020818303038152906040527f41304fac000000000000000000000000000000000000000000000000000000007bffffffffffffffffffffffffffffffffffffffffffffffffffffffff19166020820180517bffffffffffffffffffffffffffffffffffffffffffffffffffffffff8381831617835250505050610e9e565b50565b60008060009054906101000a900473ffffffffffffffffffffffffffffffffffffffff1673ffffffffffffffffffffffffffffffffffffffff1663668a0f026040518163ffffffff1660e01b8152600401602060405180830381865afa158015610d3e573d6000803e3d6000fd5b505050506040513d601f19601f82011682018060405250810190610d629190611bb0565b905090565b6000806001905060008390508392505b8069ffffffffffffffffffff168269ffffffffffffffffffff1611610e9657600060028383610da69190611bdd565b610db09190611c1b565b83610dbb9190611c4c565b905060008060009054906101000a900473ffffffffffffffffffffffffffffffffffffffff1673ffffffffffffffffffffffffffffffffffffffff16639a6fc8f5836040518263ffffffff1660e01b8152600401610e19919061199b565b60a060405180830381865afa158015610e36573d6000803e3d6000fd5b505050506040513d601f19601f82011682018060405250810190610e5a9190611a18565b50935050505086811015610e7c57600182610e759190611c4c565b9350610e8f565b819450600182610e8c9190611bdd565b92505b5050610d77565b505092915050565b610eb581610ead610eb8610ed9565b63ffffffff16565b50565b60006a636f6e736f6c652e6c6f679050600080835160208501845afa505050565b610ee4819050919050565b610eec611c8a565b565b6000604051905090565b600080fd5b6000819050919050565b610f1081610efd565b8114610f1b57600080fd5b50565b600081359050610f2d81610f07565b92915050565b60048110610f4057600080fd5b50565b600081359050610f5281610f33565b92915050565b600080600060608486031215610f7157610f70610ef8565b5b6000610f7f86828701610f1e565b9350506020610f9086828701610f1e565b9250506040610fa186828701610f43565b9150509250925092565b600060208284031215610fc157610fc0610ef8565b5b6000610fcf84828501610f1e565b91505092915050565b60008060408385031215610fef57610fee610ef8565b5b6000610ffd85828601610f1e565b925050602061100e85828601610f1e565b9150509250929050565b61102181610efd565b82525050565b600060208201905061103c6000830184611018565b92915050565b600073ffffffffffffffffffffffffffffffffffffffff82169050919050565b6000819050919050565b600061108761108261107d84611042565b611062565b611042565b9050919050565b60006110998261106c565b9050919050565b60006110ab8261108e565b9050919050565b6110bb816110a0565b82525050565b60006020820190506110d660008301846110b2565b92915050565b60006110e782611042565b9050919050565b6110f7816110dc565b82525050565b600060208201905061111260008301846110ee565b92915050565b7f4e487b7100000000000000000000000000000000000000000000000000000000600052602160045260246000fd5b600082825260208201905092915050565b7f696e737572616e636520747970652073686f756c64206e6f7420626520300000600082015250565b600061118e601e83611147565b915061119982611158565b602082019050919050565b600060208201905081810360008301526111bd81611181565b9050919050565b7f656e64446174652073686f756c6420626520616674657220737461727444617460008201527f6500000000000000000000000000000000000000000000000000000000000000602082015250565b6000611220602183611147565b915061122b826111c4565b604082019050919050565b6000602082019050818103600083015261124f81611213565b9050919050565b7f496e73756666696369656e74204554482073656e7420666f722074686520737060008201527f65636966696564206475726174696f6e00000000000000000000000000000000602082015250565b60006112b2603083611147565b91506112bd82611256565b604082019050919050565b600060208201905081810360008301526112e1816112a5565b9050919050565b600481106112f9576112f8611118565b5b50565b600081905061130a826112e8565b919050565b600061131a826112fc565b9050919050565b61132a8161130f565b82525050565b61133981610efd565b82525050565b60a0820160008201516113556000850182611321565b5060208201516113686020850182611330565b50604082015161137b6040850182611330565b50606082015161138e6060850182611330565b5060808201516113a16080850182611330565b50505050565b600060c0820190506113bc60008301856110ee565b6113c9602083018461133f565b9392505050565b6113d9816110dc565b81146113e457600080fd5b50565b6000815190506113f6816113d0565b92915050565b60006020828403121561141257611411610ef8565b5b6000611420848285016113e7565b91505092915050565b7f6e6f7420746865206f776e6572206f66207468697320746f6b656e0000000000600082015250565b600061145f601b83611147565b915061146a82611429565b602082019050919050565b6000602082019050818103600083015261148e81611452565b9050919050565b600080fd5b6000601f19601f8301169050919050565b7f4e487b7100000000000000000000000000000000000000000000000000000000600052604160045260246000fd5b6114e38261149a565b810181811067ffffffffffffffff82111715611502576115016114ab565b5b80604052505050565b6000611515610eee565b905061152182826114da565b919050565b60008151905061153581610f33565b92915050565b60008151905061154a81610f07565b92915050565b600060a0828403121561156657611565611495565b5b61157060a061150b565b9050600061158084828501611526565b60008301525060206115948482850161153b565b60208301525060406115a88482850161153b565b60408301525060606115bc8482850161153b565b60608301525060806115d08482850161153b565b60808301525092915050565b600060a082840312156115f2576115f1610ef8565b5b600061160084828501611550565b91505092915050565b7f6e6f20696e737572616e636520706f6c69637920666f72207468697320746f6b60008201527f656e000000000000000000000000000000000000000000000000000000000000602082015250565b6000611665602283611147565b915061167082611609565b604082019050919050565b6000602082019050818103600083015261169481611658565b9050919050565b7f656e644461746520686173206e6f742070617373656400000000000000000000600082015250565b60006116d1601683611147565b91506116dc8261169b565b602082019050919050565b60006020820190508181036000830152611700816116c4565b9050919050565b7f4e487b7100000000000000000000000000000000000000000000000000000000600052601160045260246000fd5b600061174182610efd565b915061174c83610efd565b925082820261175a81610efd565b9150828204841483151761177157611770611707565b5b5092915050565b7f496e73756666696369656e7420636f6e74726163742062616c616e636520666f60008201527f72207061796f7574000000000000000000000000000000000000000000000000602082015250565b60006117d4602883611147565b91506117df82611778565b604082019050919050565b60006020820190508181036000830152611803816117c7565b9050919050565b600081905092915050565b50565b600061182560008361180a565b915061183082611815565b600082019050919050565b600061184682611818565b9150819050919050565b7f4661696c656420746f207472616e736665722045544820746f20636c61696d6560008201527f7200000000000000000000000000000000000000000000000000000000000000602082015250565b60006118ac602183611147565b91506118b782611850565b604082019050919050565b600060208201905081810360008301526118db8161189f565b9050919050565b60006118ed82610efd565b91506118f883610efd565b92508282039050818111156119105761190f611707565b5b92915050565b7f4e487b7100000000000000000000000000000000000000000000000000000000600052601260045260246000fd5b600061195082610efd565b915061195b83610efd565b92508261196b5761196a611916565b5b828204905092915050565b600069ffffffffffffffffffff82169050919050565b61199581611976565b82525050565b60006020820190506119b0600083018461198c565b92915050565b6119bf81611976565b81146119ca57600080fd5b50565b6000815190506119dc816119b6565b92915050565b6000819050919050565b6119f5816119e2565b8114611a0057600080fd5b50565b600081519050611a12816119ec565b92915050565b600080600080600060a08688031215611a3457611a33610ef8565b5b6000611a42888289016119cd565b9550506020611a5388828901611a03565b9450506040611a648882890161153b565b9350506060611a758882890161153b565b9250506080611a86888289016119cd565b9150509295509295909350565b6000611a9e82610efd565b9150611aa983610efd565b9250828201905080821115611ac157611ac0611707565b5b92915050565b6000611ad282611976565b915060008203611ae557611ae4611707565b5b600182039050919050565b600081519050919050565b60005b83811015611b19578082015181840152602081019050611afe565b60008484015250505050565b6000611b3082611af0565b611b3a8185611147565b9350611b4a818560208601611afb565b611b538161149a565b840191505092915050565b60006040820190508181036000830152611b788185611b25565b9050611b876020830184611018565b9392505050565b60006020820190508181036000830152611ba88184611b25565b905092915050565b600060208284031215611bc657611bc5610ef8565b5b6000611bd48482850161153b565b91505092915050565b6000611be882611976565b9150611bf383611976565b9250828203905069ffffffffffffffffffff811115611c1557611c14611707565b5b92915050565b6000611c2682611976565b9150611c3183611976565b925082611c4157611c40611916565b5b828204905092915050565b6000611c5782611976565b9150611c6283611976565b9250828201905069ffffffffffffffffffff811115611c8457611c83611707565b5b92915050565b7f4e487b7100000000000000000000000000000000000000000000000000000000600052605160045260246000fdfea2646970667358221220df62fb76f527612e1998654490e6ed236cb87a7fad1bcb9a95674142b1aafd5764736f6c634300081b0033608060405234801561001057600080fd5b506040518060400160405280600e81526020017f41677269536869656c64204e46540000000000000000000000000000000000008152506040518060400160405280600381526020017f415348000000000000000000000000000000000000000000000000000000000081525033600073ffffffffffffffffffffffffffffffffffffffff168173ffffffffffffffffffffffffffffffffffffffff16036100f05760006040517f1e4fbdf70000000000000000000000000000000000000000000000000000000081526004016100e79190610234565b60405180910390fd5b6100ff8161012f60201b60201c565b50816001908161010f919061049f565b50806002908161011f919061049f565b5050506000600781905550610571565b60008060009054906101000a900473ffffffffffffffffffffffffffffffffffffffff169050816000806101000a81548173ffffffffffffffffffffffffffffffffffffffff021916908373ffffffffffffffffffffffffffffffffffffffff1602179055508173ffffffffffffffffffffffffffffffffffffffff168173ffffffffffffffffffffffffffffffffffffffff167f8be0079c531659141344cd1fd0a4f28419497f9722a3daafe3b4186f6b6457e060405160405180910390a35050565b600073ffffffffffffffffffffffffffffffffffffffff82169050919050565b600061021e826101f3565b9050919050565b61022e81610213565b82525050565b60006020820190506102496000830184610225565b92915050565b600081519050919050565b7f4e487b7100000000000000000000000000000000000000000000000000000000600052604160045260246000fd5b7f4e487b7100000000000000000000000000000000000000000000000000000000600052602260045260246000fd5b600060028204905060018216806102d057607f821691505b6020821081036102e3576102e2610289565b5b50919050565b60008190508160005260206000209050919050565b60006020601f8301049050919050565b600082821b905092915050565b60006008830261034b7fffffffffffffffffffffffffffffffffffffffffffffffffffffffffffffffff8261030e565b610355868361030e565b95508019841693508086168417925050509392505050565b6000819050919050565b6000819050919050565b600061039c6103976103928461036d565b610377565b61036d565b9050919050565b6000819050919050565b6103b683610381565b6103ca6103c2826103a3565b84845461031b565b825550505050565b600090565b6103df6103d2565b6103ea8184846103ad565b505050565b5b8181101561040e576104036000826103d7565b6001810190506103f0565b5050565b601f82111561045357610424816102e9565b61042d846102fe565b8101602085101561043c578190505b610450610448856102fe565b8301826103ef565b50505b505050565b600082821c905092915050565b600061047660001984600802610458565b1980831691505092915050565b600061048f8383610465565b9150826002028217905092915050565b6104a88261024f565b67ffffffffffffffff8111156104c1576104c061025a565b5b6104cb82546102b8565b6104d6828285610412565b600060209050601f83116001811461050957600084156104f7578287015190505b6105018582610483565b865550610569565b601f198416610517866102e9565b60005b8281101561053f5784890151825560018201915060208501945060208101905061051a565b8683101561055c5784890151610558601f891682610465565b8355505b6001600288020188555050505b505050505050565b61265e806105806000396000f3fe608060405234801561001057600080fd5b50600436106101375760003560e01c806370a08231116100b8578063b6f2d6bf1161007c578063b6f2d6bf14610338578063b88d4fde1461036c578063c87b56dd14610388578063d082e381146103b8578063e985e9c5146103d6578063f2fde38b1461040657610137565b806370a08231146102a6578063715018a6146102d65780638da5cb5b146102e057806395d89b41146102fe578063a22cb4651461031c57610137565b8063104f3b72116100ff578063104f3b721461020657806323b872dd1461022257806342842e0e1461023e57806342966c681461025a5780636352211e1461027657610137565b806301ffc9a71461013c57806302f2fc5c1461016c57806306fdde031461019c578063081812fc146101ba578063095ea7b3146101ea575b600080fd5b61015660048036038101906101519190611bd0565b610422565b6040516101639190611c18565b60405180910390f35b61018660048036038101906101819190611c69565b610504565b6040516101939190611d84565b60405180910390f35b6101a4610594565b6040516101b19190611e2f565b60405180910390f35b6101d460048036038101906101cf9190611c69565b610626565b6040516101e19190611e92565b60405180910390f35b61020460048036038101906101ff9190611ed9565b610642565b005b610220600480360381019061021b919061204a565b610658565b005b61023c6004803603810190610237919061208a565b6106fd565b005b6102586004803603810190610253919061208a565b6107ff565b005b610274600480360381019061026f9190611c69565b61081f565b005b610290600480360381019061028b9190611c69565b610833565b60405161029d9190611e92565b60405180910390f35b6102c060048036038101906102bb91906120dd565b610845565b6040516102cd9190612119565b60405180910390f35b6102de6108ff565b005b6102e8610913565b6040516102f59190611e92565b60405180910390f35b61030661093c565b6040516103139190611e2f565b60405180910390f35b61033660048036038101906103319190612160565b6109ce565b005b610352600480360381019061034d9190611c69565b6109e4565b6040516103639594939291906121af565b60405180910390f35b610386600480360381019061038191906122bc565b610a27565b005b6103a2600480360381019061039d9190611c69565b610a4c565b6040516103af9190611e2f565b60405180910390f35b6103c0610ab5565b6040516103cd9190612119565b60405180910390f35b6103f060048036038101906103eb919061233f565b610abb565b6040516103fd9190611c18565b60405180910390f35b610420600480360381019061041b91906120dd565b610b4f565b005b60007f80ac58cd000000000000000000000000000000000000000000000000000000007bffffffffffffffffffffffffffffffffffffffffffffffffffffffff1916827bffffffffffffffffffffffffffffffffffffffffffffffffffffffff191614806104ed57507f5b5e139f000000000000000000000000000000000000000000000000000000007bffffffffffffffffffffffffffffffffffffffffffffffffffffffff1916827bffffffffffffffffffffffffffffffffffffffffffffffffffffffff1916145b806104fd57506104fc82610bd5565b5b9050919050565b61050c611b23565b600860008381526020019081526020016000206040518060a00160405290816000820160009054906101000a900460ff16600381111561054f5761054e611c96565b5b600381111561056157610560611c96565b5b81526020016001820154815260200160028201548152602001600382015481526020016004820154815250509050919050565b6060600180546105a3906123ae565b80601f01602080910402602001604051908101604052809291908181526020018280546105cf906123ae565b801561061c5780601f106105f15761010080835404028352916020019161061c565b820191906000526020600020905b8154815290600101906020018083116105ff57829003601f168201915b5050505050905090565b600061063182610c3f565b5061063b82610cc7565b9050919050565b610654828261064f610d04565b610d0c565b5050565b610660610d1e565b60006007549050816008600083815260200190815260200160002060008201518160000160006101000a81548160ff021916908360038111156106a6576106a5611c96565b5b021790555060208201518160010155604082015181600201556060820151816003015560808201518160040155905050600760008154809291906106e99061240e565b91905055506106f88382610da5565b505050565b600073ffffffffffffffffffffffffffffffffffffffff168273ffffffffffffffffffffffffffffffffffffffff160361076f5760006040517f64a0ae920000000000000000000000000000000000000000000000000000000081526004016107669190611e92565b60405180910390fd5b6000610783838361077e610d04565b610dc3565b90508373ffffffffffffffffffffffffffffffffffffffff168173ffffffffffffffffffffffffffffffffffffffff16146107f9578382826040517f64283d7b0000000000000000000000000000000000000000000000000000000081526004016107f093929190612456565b60405180910390fd5b50505050565b61081a83838360405180602001604052806000815250610a27565b505050565b610827610d1e565b61083081610fdd565b50565b600061083e82610c3f565b9050919050565b60008073ffffffffffffffffffffffffffffffffffffffff168273ffffffffffffffffffffffffffffffffffffffff16036108b85760006040517f89c62b640000000000000000000000000000000000000000000000000000000081526004016108af9190611e92565b60405180910390fd5b600460008373ffffffffffffffffffffffffffffffffffffffff1673ffffffffffffffffffffffffffffffffffffffff168152602001908152602001600020549050919050565b610907610d1e565b6109116000611063565b565b60008060009054906101000a900473ffffffffffffffffffffffffffffffffffffffff16905090565b60606002805461094b906123ae565b80601f0160208091040260200160405190810160405280929190818152602001828054610977906123ae565b80156109c45780601f10610999576101008083540402835291602001916109c4565b820191906000526020600020905b8154815290600101906020018083116109a757829003601f168201915b5050505050905090565b6109e06109d9610d04565b8383611127565b5050565b60086020528060005260406000206000915090508060000160009054906101000a900460ff16908060010154908060020154908060030154908060040154905085565b610a328484846106fd565b610a46610a3d610d04565b85858585611296565b50505050565b6060610a5782610c3f565b506000610a62611447565b90506000815111610a825760405180602001604052806000815250610aad565b80610a8c8461145e565b604051602001610a9d9291906124c9565b6040516020818303038152906040525b915050919050565b60075481565b6000600660008473ffffffffffffffffffffffffffffffffffffffff1673ffffffffffffffffffffffffffffffffffffffff16815260200190815260200160002060008373ffffffffffffffffffffffffffffffffffffffff1673ffffffffffffffffffffffffffffffffffffffff16815260200190815260200160002060009054906101000a900460ff16905092915050565b610b57610d1e565b600073ffffffffffffffffffffffffffffffffffffffff168173ffffffffffffffffffffffffffffffffffffffff1603610bc95760006040517f1e4fbdf7000000000000000000000000000000000000000000000000000000008152600401610bc09190611e92565b60405180910390fd5b610bd281611063565b50565b60007f01ffc9a7000000000000000000000000000000000000000000000000000000007bffffffffffffffffffffffffffffffffffffffffffffffffffffffff1916827bffffffffffffffffffffffffffffffffffffffffffffffffffffffff1916149050919050565b600080610c4b8361152c565b9050600073ffffffffffffffffffffffffffffffffffffffff168173ffffffffffffffffffffffffffffffffffffffff1603610cbe57826040517f7e273289000000000000000000000000000000000000000000000000000000008152600401610cb59190612119565b60405180910390fd5b80915050919050565b60006005600083815260200190815260200160002060009054906101000a900473ffffffffffffffffffffffffffffffffffffffff169050919050565b600033905090565b610d198383836001611569565b505050565b610d26610d04565b73ffffffffffffffffffffffffffffffffffffffff16610d44610913565b73ffffffffffffffffffffffffffffffffffffffff1614610da357610d67610d04565b6040517f118cdaa7000000000000000000000000000000000000000000000000000000008152600401610d9a9190611e92565b60405180910390fd5b565b610dbf82826040518060200160405280600081525061172e565b5050565b600080610dcf8461152c565b9050600073ffffffffffffffffffffffffffffffffffffffff168373ffffffffffffffffffffffffffffffffffffffff1614610e1157610e10818486611752565b5b600073ffffffffffffffffffffffffffffffffffffffff168173ffffffffffffffffffffffffffffffffffffffff1614610ea257610e53600085600080611569565b6001600460008373ffffffffffffffffffffffffffffffffffffffff1673ffffffffffffffffffffffffffffffffffffffff168152602001908152602001600020600082825403925050819055505b600073ffffffffffffffffffffffffffffffffffffffff168573ffffffffffffffffffffffffffffffffffffffff1614610f25576001600460008773ffffffffffffffffffffffffffffffffffffffff1673ffffffffffffffffffffffffffffffffffffffff168152602001908152602001600020600082825401925050819055505b846003600086815260200190815260200160002060006101000a81548173ffffffffffffffffffffffffffffffffffffffff021916908373ffffffffffffffffffffffffffffffffffffffff160217905550838573ffffffffffffffffffffffffffffffffffffffff168273ffffffffffffffffffffffffffffffffffffffff167fddf252ad1be2c89b69c2b068fc378daa952ba7f163c4a11628f55a4df523b3ef60405160405180910390a4809150509392505050565b6000610fec6000836000610dc3565b9050600073ffffffffffffffffffffffffffffffffffffffff168173ffffffffffffffffffffffffffffffffffffffff160361105f57816040517f7e2732890000000000000000000000000000000000000000000000000000000081526004016110569190612119565b60405180910390fd5b5050565b60008060009054906101000a900473ffffffffffffffffffffffffffffffffffffffff169050816000806101000a81548173ffffffffffffffffffffffffffffffffffffffff021916908373ffffffffffffffffffffffffffffffffffffffff1602179055508173ffffffffffffffffffffffffffffffffffffffff168173ffffffffffffffffffffffffffffffffffffffff167f8be0079c531659141344cd1fd0a4f28419497f9722a3daafe3b4186f6b6457e060405160405180910390a35050565b600073ffffffffffffffffffffffffffffffffffffffff168273ffffffffffffffffffffffffffffffffffffffff160361119857816040517f5b08ba1800000000000000000000000000000000000000000000000000000000815260040161118f9190611e92565b60405180910390fd5b80600660008573ffffffffffffffffffffffffffffffffffffffff1673ffffffffffffffffffffffffffffffffffffffff16815260200190815260200160002060008473ffffffffffffffffffffffffffffffffffffffff1673ffffffffffffffffffffffffffffffffffffffff16815260200190815260200160002060006101000a81548160ff0219169083151502179055508173ffffffffffffffffffffffffffffffffffffffff168373ffffffffffffffffffffffffffffffffffffffff167f17307eab39ab6107e8899845ad3d59bd9653f200f220920489ca2b5937696c31836040516112899190611c18565b60405180910390a3505050565b60008373ffffffffffffffffffffffffffffffffffffffff163b1115611440578273ffffffffffffffffffffffffffffffffffffffff1663150b7a02868685856040518563ffffffff1660e01b81526004016112f59493929190612542565b6020604051808303816000875af192505050801561133157506040513d601f19601f8201168201806040525081019061132e91906125a3565b60015b6113b5573d8060008114611361576040519150601f19603f3d011682016040523d82523d6000602084013e611366565b606091505b5060008151036113ad57836040517f64a0ae920000000000000000000000000000000000000000000000000000000081526004016113a49190611e92565b60405180910390fd5b805181602001fd5b63150b7a0260e01b7bffffffffffffffffffffffffffffffffffffffffffffffffffffffff1916817bffffffffffffffffffffffffffffffffffffffffffffffffffffffff19161461143e57836040517f64a0ae920000000000000000000000000000000000000000000000000000000081526004016114359190611e92565b60405180910390fd5b505b5050505050565b606060405180602001604052806000815250905090565b60606000600161146d84611816565b01905060008167ffffffffffffffff81111561148c5761148b611f1e565b5b6040519080825280601f01601f1916602001820160405280156114be5781602001600182028036833780820191505090505b509050600082602001820190505b600115611521578080600190039150507f3031323334353637383961626364656600000000000000000000000000000000600a86061a8153600a8581611515576115146125d0565b5b049450600085036114cc575b819350505050919050565b60006003600083815260200190815260200160002060009054906101000a900473ffffffffffffffffffffffffffffffffffffffff169050919050565b80806115a25750600073ffffffffffffffffffffffffffffffffffffffff168273ffffffffffffffffffffffffffffffffffffffff1614155b156116d65760006115b284610c3f565b9050600073ffffffffffffffffffffffffffffffffffffffff168373ffffffffffffffffffffffffffffffffffffffff161415801561161d57508273ffffffffffffffffffffffffffffffffffffffff168173ffffffffffffffffffffffffffffffffffffffff1614155b8015611630575061162e8184610abb565b155b1561167257826040517fa9fbf51f0000000000000000000000000000000000000000000000000000000081526004016116699190611e92565b60405180910390fd5b81156116d457838573ffffffffffffffffffffffffffffffffffffffff168273ffffffffffffffffffffffffffffffffffffffff167f8c5be1e5ebec7d5bd14f71427d1e84f3dd0314c0f7b2291e5b200ac8c7c3b92560405160405180910390a45b505b836005600085815260200190815260200160002060006101000a81548173ffffffffffffffffffffffffffffffffffffffff021916908373ffffffffffffffffffffffffffffffffffffffff16021790555050505050565b6117388383611969565b61174d611743610d04565b6000858585611296565b505050565b61175d838383611a62565b61181157600073ffffffffffffffffffffffffffffffffffffffff168373ffffffffffffffffffffffffffffffffffffffff16036117d257806040517f7e2732890000000000000000000000000000000000000000000000000000000081526004016117c99190612119565b60405180910390fd5b81816040517f177e802f0000000000000000000000000000000000000000000000000000000081526004016118089291906125ff565b60405180910390fd5b505050565b600080600090507a184f03e93ff9f4daa797ed6e38ed64bf6a1f0100000000000000008310611874577a184f03e93ff9f4daa797ed6e38ed64bf6a1f010000000000000000838161186a576118696125d0565b5b0492506040810190505b6d04ee2d6d415b85acef810000000083106118b1576d04ee2d6d415b85acef810000000083816118a7576118a66125d0565b5b0492506020810190505b662386f26fc1000083106118e057662386f26fc1000083816118d6576118d56125d0565b5b0492506010810190505b6305f5e1008310611909576305f5e10083816118ff576118fe6125d0565b5b0492506008810190505b612710831061192e576127108381611924576119236125d0565b5b0492506004810190505b606483106119515760648381611947576119466125d0565b5b0492506002810190505b600a8310611960576001810190505b80915050919050565b600073ffffffffffffffffffffffffffffffffffffffff168273ffffffffffffffffffffffffffffffffffffffff16036119db5760006040517f64a0ae920000000000000000000000000000000000000000000000000000000081526004016119d29190611e92565b60405180910390fd5b60006119e983836000610dc3565b9050600073ffffffffffffffffffffffffffffffffffffffff168173ffffffffffffffffffffffffffffffffffffffff1614611a5d5760006040517f73c6ac6e000000000000000000000000000000000000000000000000000000008152600401611a549190611e92565b60405180910390fd5b505050565b60008073ffffffffffffffffffffffffffffffffffffffff168373ffffffffffffffffffffffffffffffffffffffff1614158015611b1a57508273ffffffffffffffffffffffffffffffffffffffff168473ffffffffffffffffffffffffffffffffffffffff161480611adb5750611ada8484610abb565b5b80611b1957508273ffffffffffffffffffffffffffffffffffffffff16611b0183610cc7565b73ffffffffffffffffffffffffffffffffffffffff16145b5b90509392505050565b6040518060a0016040528060006003811115611b4257611b41611c96565b5b8152602001600081526020016000815260200160008152602001600081525090565b6000604051905090565b600080fd5b600080fd5b60007fffffffff0000000000000000000000000000000000000000000000000000000082169050919050565b611bad81611b78565b8114611bb857600080fd5b50565b600081359050611bca81611ba4565b92915050565b600060208284031215611be657611be5611b6e565b5b6000611bf484828501611bbb565b91505092915050565b60008115159050919050565b611c1281611bfd565b82525050565b6000602082019050611c2d6000830184611c09565b92915050565b6000819050919050565b611c4681611c33565b8114611c5157600080fd5b50565b600081359050611c6381611c3d565b92915050565b600060208284031215611c7f57611c7e611b6e565b5b6000611c8d84828501611c54565b91505092915050565b7f4e487b7100000000000000000000000000000000000000000000000000000000600052602160045260246000fd5b60048110611cd657611cd5611c96565b5b50565b6000819050611ce782611cc5565b919050565b6000611cf782611cd9565b9050919050565b611d0781611cec565b82525050565b611d1681611c33565b82525050565b60a082016000820151611d326000850182611cfe565b506020820151611d456020850182611d0d565b506040820151611d586040850182611d0d565b506060820151611d6b6060850182611d0d565b506080820151611d7e6080850182611d0d565b50505050565b600060a082019050611d996000830184611d1c565b92915050565b600081519050919050565b600082825260208201905092915050565b60005b83811015611dd9578082015181840152602081019050611dbe565b60008484015250505050565b6000601f19601f8301169050919050565b6000611e0182611d9f565b611e0b8185611daa565b9350611e1b818560208601611dbb565b611e2481611de5565b840191505092915050565b60006020820190508181036000830152611e498184611df6565b905092915050565b600073ffffffffffffffffffffffffffffffffffffffff82169050919050565b6000611e7c82611e51565b9050919050565b611e8c81611e71565b82525050565b6000602082019050611ea76000830184611e83565b92915050565b611eb681611e71565b8114611ec157600080fd5b50565b600081359050611ed381611ead565b92915050565b60008060408385031215611ef057611eef611b6e565b5b6000611efe85828601611ec4565b9250506020611f0f85828601611c54565b9150509250929050565b600080fd5b7f4e487b7100000000000000000000000000000000000000000000000000000000600052604160045260246000fd5b611f5682611de5565b810181811067ffffffffffffffff82111715611f7557611f74611f1e565b5b80604052505050565b6000611f88611b64565b9050611f948282611f4d565b919050565b60048110611fa657600080fd5b50565b600081359050611fb881611f99565b92915050565b600060a08284031215611fd457611fd3611f19565b5b611fde60a0611f7e565b90506000611fee84828501611fa9565b600083015250602061200284828501611c54565b602083015250604061201684828501611c54565b604083015250606061202a84828501611c54565b606083015250608061203e84828501611c54565b60808301525092915050565b60008060c0838503121561206157612060611b6e565b5b600061206f85828601611ec4565b925050602061208085828601611fbe565b9150509250929050565b6000806000606084860312156120a3576120a2611b6e565b5b60006120b186828701611ec4565b93505060206120c286828701611ec4565b92505060406120d386828701611c54565b9150509250925092565b6000602082840312156120f3576120f2611b6e565b5b600061210184828501611ec4565b91505092915050565b61211381611c33565b82525050565b600060208201905061212e600083018461210a565b92915050565b61213d81611bfd565b811461214857600080fd5b50565b60008135905061215a81612134565b92915050565b6000806040838503121561217757612176611b6e565b5b600061218585828601611ec4565b92505060206121968582860161214b565b9150509250929050565b6121a981611cec565b82525050565b600060a0820190506121c460008301886121a0565b6121d1602083018761210a565b6121de604083018661210a565b6121eb606083018561210a565b6121f8608083018461210a565b9695505050505050565b600080fd5b600080fd5b600067ffffffffffffffff82111561222757612226611f1e565b5b61223082611de5565b9050602081019050919050565b82818337600083830152505050565b600061225f61225a8461220c565b611f7e565b90508281526020810184848401111561227b5761227a612207565b5b61228684828561223d565b509392505050565b600082601f8301126122a3576122a2612202565b5b81356122b384826020860161224c565b91505092915050565b600080600080608085870312156122d6576122d5611b6e565b5b60006122e487828801611ec4565b94505060206122f587828801611ec4565b935050604061230687828801611c54565b925050606085013567ffffffffffffffff81111561232757612326611b73565b5b6123338782880161228e565b91505092959194509250565b6000806040838503121561235657612355611b6e565b5b600061236485828601611ec4565b925050602061237585828601611ec4565b9150509250929050565b7f4e487b7100000000000000000000000000000000000000000000000000000000600052602260045260246000fd5b600060028204905060018216806123c657607f821691505b6020821081036123d9576123d861237f565b5b50919050565b7f4e487b7100000000000000000000000000000000000000000000000000000000600052601160045260246000fd5b600061241982611c33565b91507fffffffffffffffffffffffffffffffffffffffffffffffffffffffffffffffff820361244b5761244a6123df565b5b600182019050919050565b600060608201905061246b6000830186611e83565b612478602083018561210a565b6124856040830184611e83565b949350505050565b600081905092915050565b60006124a382611d9f565b6124ad818561248d565b93506124bd818560208601611dbb565b80840191505092915050565b60006124d58285612498565b91506124e18284612498565b91508190509392505050565b600081519050919050565b600082825260208201905092915050565b6000612514826124ed565b61251e81856124f8565b935061252e818560208601611dbb565b61253781611de5565b840191505092915050565b60006080820190506125576000830187611e83565b6125646020830186611e83565b612571604083018561210a565b81810360608301526125838184612509565b905095945050505050565b60008151905061259d81611ba4565b92915050565b6000602082840312156125b9576125b8611b6e565b5b60006125c78482850161258e565b91505092915050565b7f4e487b7100000000000000000000000000000000000000000000000000000000600052601260045260246000fd5b60006040820190506126146000830185611e83565b612621602083018461210a565b939250505056fea26469706673582212204d79217e2d213d0286b637381fdfa52d639ad6f58dace24e6948507e5065be1d64736f6c634300081b0033",
    "linkReferences": {},
    "deployedLinkReferences": {}
}